:020000040000FA
:0400000007EF00F016
:0A000800328255ED06F033EF06F0EA
:10080000002A5458542A000081B631D081A824D03F
:1008100081AA19D081AC0ED081AE03D007680868D8
:1008200004D0000E086E0C0E076E07C005F008C05D
:1008300006F004D0000E066E080E056E05C003F02B
:1008400006C004F004D0000E046E040E036E03C054
:100850001BF004C01CF004D0000E1C6E000E1B6EBA
:100860001B2805E11C28D8A402D08186819481B47C
:1008700031D081A824D081AA19D081AC0ED081AE0C
:1008800003D00D680E6804D0000E0E6E0D0E0D6EB6
:100890000DC00BF00EC00CF004D0000E0C6E090E53
:1008A0000B6E0BC009F00CC00AF004D0000E0A6EEB
:1008B000050E096E09C01BF00AC01CF004D0000E22
:1008C0001C6E010E1B6E1B2805E11C28D8A402D04B
:1008D0008184819281B231D081A824D081AA19D09B
:1008E00081AC0ED081AE03D01368146804D0000E22
:1008F000146E0E0E136E13C011F014C012F004D05B
:10090000000E126E0A0E116E11C00FF012C010F020
:1009100004D0000E106E060E0F6E0FC01BF010C03C
:100920001CF004D0000E1C6E020E1B6E1B2805E18D
:100930001C28D8A402D08182819081B031D081A8B6
:1009400024D081AA19D081AC0ED081AE03D0196811
:100950001A6804D0000E1A6E0F0E196E19C017F027
:100960001AC018F004D0000E186E0B0E176E17C0C8
:1009700015F018C016F004D0000E166E070E156E96
:1009800015C01BF016C01CF004D0000E1C6E030E28
:100990001B6E1B2805E11C28D8A402D081808196FB
:1009A0001BC001F01CC002F01200026E0F0E831675
:1009B0000F0E95169694969096928D948D908D929A
:1009C00066EC06F0300EA5EC05F04CEC06F04CECB5
:1009D00006F0300EA5EC05F04CEC06F04CEC06F001
:1009E000320EA5EC05F0E2EC05F00009D8A4FBD727
:1009F000E2EC05F00009D8A4FBD70250A5EC05F005
:100A0000E2EC05F00009D8A4FBD7080EA5EC05F030
:100A1000E2EC05F00009D8A4FBD70F0EA5EC05F019
:100A2000E2EC05F00009D8A4FBD7010EA5EC05F017
:100A3000E2EC05F00009D8A4FBD7040EA5EC05F004
:100A4000E2EC05F00009D8A4FBD7800E66EC05F0B7
:100A50001200F19E0F0EC16E959083907BEC06F014
:100A600077EC06F073EC06F019EC06F0850EA5ECB9
:100A700005F0010E026E080E036EFFEC05F0C70EC6
:100A8000A5EC05F004EC04F001C020F002C021F058
:100A90001E50201804E11F502118D8B406D020C0E1
:100AA00002F021C003F0C4EC05F020C01EF021C00C
:100AB0001FF0E2EC05F00009D8A4E4D7340E1D6E57
:100AC000F20EE82EFED71D2EFCD7DCD7016E0F0EDE
:100AD00095160F0E831601508009F00B83128D942A
:100AE0008D906EEC06F08D826EEC06F08D920F0EFE
:100AF00083160138F00BF00B83126EEC06F08D823A
:100B00006EEC06F08D92F00E95121200016E0F0E33
:100B100095160F0E83160150F00B83128D808D9465
:100B20006EEC06F08D826EEC06F08D920F0E831641
:100B30000138F00BF00B83126EEC06F08D826EEC38
:100B400006F08D92F00E95121200016E0F0E9516A2
:100B50000F0E83160150F00B83128D948D906EEC66
:100B600006F08D826EEC06F08D920F0E8316013822
:100B7000F00BF00B83126EEC06F08D826EEC06F03B
:100B80008D92F00E9512120020EE22F010EE04F07D
:100B90000F0EDBCFE3FFE806FCE2022803E10328A7
:100BA000D8B41200C70EA5EC05F0040E0224D96ECD
:100BB000000E0320DA6EDF5086EC05F0C70EA5ECC0
:100BC00005F012008D848D906EEC06F08D826EEC37
:100BD00006F083AE0AD08D926EEC06F08D826EEC3C
:100BE00006F08D928D94010E12008D926EEC06F03F
:100BF0008D826EEC06F08D928D94000E12000FD057
:100C0000E2EC05F00009D8A4FBD702C0F6FF03C050
:100C1000F7FF0800F55086EC05F0024A032A02C0EF
:100C2000F6FF03C0F7FF0800F5500009D8B4120022
:100C3000E7D7280ED5EC04F0010EA5EC05F0340E34
:100C4000036EF20EE82EFED7032EFCD793909392FC
:100C5000939493969388938A938C938E81808182C8
:100C6000818481961200BC0EF66E0C0EF76E000E9B
:100C7000F86E00EE22F010EE10F00900F5CFEEFF56
:100C8000E550E150FAE132903292000EF86E080E13
:100C9000F76E000129EF05F0210E016E760EE82EA9
:100CA000FED7012EFCD700D012000600F0A002D023
:100CB000F09002D0F0B2F092329211003132334112
:100CC000343536423738394346304544620E016E7A
:100CD000660EE82EFED7012EFCD71200210EE82E5C
:100CE000FED700F01200F088F198F0921200F08622
:0E0CF000F19AF0901200D08EF28EF28C12006B
:020000040020DA
:08000000FFFFFFFFFFFFFFFF00
:020000040030CA
:0E000000000C191EFF8080FF0FC00FE00F40A4
:00000001FF
