:020000040000FA
:0400000007EF00F016
:0A000800338232ED06F019EF06F026
:10080000002A5458542A000081B62AD081A824D046
:1008100081AA19D081AC0ED081AE03D008680968D6
:1008200004D0000E096E0C0E086E08C006F009C058
:1008300007F004D0000E076E080E066E06C004F026
:1008400007C005F004D0000E056E040E046E04C04F
:100850001CF005C01DF088D0000E1D6E000E83D068
:1008600081B42AD081A824D081AA19D081AC0ED01D
:1008700081AE03D00E680F6804D0000E0F6E0D0E0F
:100880000E6E0EC00CF00FC00DF004D0000E0D6EF9
:10089000090E0C6E0CC00AF00DC00BF004D0000E57
:1008A0000B6E050E0A6E0AC01CF00BC01DF05CD06A
:1008B000000E1D6E010E57D081B22AD081A824D01F
:1008C00081AA19D081AC0ED081AE03D0146815680E
:1008D00004D0000E156E0E0E146E14C012F015C06A
:1008E00013F004D0000E136E0A0E126E12C010F038
:1008F00013C011F004D0000E116E060E106E10C061
:100900001CF011C01DF030D0000E1D6E020E2BD059
:1009100081B02AD081A824D081AA19D081AC0ED070
:1009200081AE03D01A681B6804D0000E1B6E0F0E38
:100930001A6E1AC018F01BC019F004D0000E196E00
:100940000B0E186E18C016F019C017F004D0000E68
:10095000176E070E166E16C01CF017C01DF004D0DF
:10096000000E1D6E030E1C6E1CC002F01DC003F0B5
:100970001200036E0F0E83160F0E95169694969026
:1009800096928D948D908D9282EC06F0300E86ECCE
:1009900005F071EC06F071EC06F0300E86EC05F017
:1009A00071EC06F071EC06F0320E86EC05F0E2EC2C
:1009B00005F00009D8A4FBD7E2EC05F00009D8A4A3
:1009C000FBD7035086EC05F0E2EC05F00009D8A453
:1009D000FBD7080E86EC05F0E2EC05F00009D8A480
:1009E000FBD70F0E86EC05F0E2EC05F00009D8A469
:1009F000FBD7010E86EC05F0E2EC05F00009D8A467
:100A0000FBD7040E86EC05F0E2EC05F00009D8A453
:100A1000FBD7800E47EC05F012008FEC06F064EC7B
:100A200006F093EC06F046EC06F056EC06F0850E68
:100A300086EC05F0010E036E080E046EFFEC05F067
:100A4000C70E86EC05F004EC04F002C021F003C0F0
:100A500022F01F50211804E120502218D8B406D0EB
:100A600021C003F022C004F0C4EC05F021C01FF047
:100A700022C020F0E2EC05F00009D8A4E4D7340E3F
:100A80001E6EF20EE82EFED71E2EFCD7DCD7026EAD
:100A90000F0E95160F0E831602508009F00B83126D
:100AA0008D948D908AEC06F08D828AEC06F08D9202
:100AB0000F0E83160238F00BF00B83128AEC06F04F
:100AC0008D828AEC06F08D92F00E95121200026E65
:100AD0000F0E95160F0E83160250F00B83128D80A9
:100AE0008D948AEC06F08D828AEC06F08D920F0EC2
:100AF00083160238F00BF00B83128AEC06F08D821D
:100B00008AEC06F08D92F00E95121200026E0F0E16
:100B100095160F0E83160250F00B83128D948D9054
:100B20008AEC06F08D828AEC06F08D920F0E831609
:100B30000238F00BF00B83128AEC06F08D828AECFF
:100B400006F08D92F00E9512120081B603D08186C8
:100B500081940ED081B403D08184819209D081B276
:100B600003D08182819004D081B002D081808196AF
:100B700083B003D0016A012A01D0016A83500118B1
:100B8000FE0B0118836E120020EE23F010EE05F02C
:100B90000F0EDBCFE3FFE806FCE2032803E10428A5
:100BA000D8B41200C70E86EC05F0050E0324D96EEA
:100BB000000E0420DA6EDF5067EC05F0C70E86ECFD
:100BC00005F012008D848D908AEC06F08D828AECFF
:100BD00006F083AE0AD08D928AEC06F08D828AEC04
:100BE00006F08D928D94010E12008D928AEC06F023
:100BF0008D828AEC06F08D928D94000E12000FD03B
:100C0000E2EC05F00009D8A4FBD703C0F6FF04C04E
:100C1000F7FF0800F55067EC05F0034A042A03C00B
:100C2000F6FF04C0F7FF0800F5500009D8B4120021
:100C3000E7D7F40EF66E0C0EF76E000EF86E00EEAF
:100C400023F010EE10F00900F5CFEEFFE550E15073
:100C5000FAE133903392000EF86E080EF76E000141
:100C60000DEF05F00600F0A002D0F0900DD0F0A23C
:100C700002D0F09209D0F2A407D0A5EC05F0000E46
:100C8000D76E640ED66EF29433921100F19E0F0E61
:100C9000C16E93909392939493969388938A938C36
:100CA000938E81808182818481961200280EB9EC16
:100CB00004F0010E86EC05F0340E046EF20EE82E00
:100CC000FED7042EFCD71200D58ED58CD59AD586AA
:100CD000D584D592D590F28A000ED76E640ED66E6A
:100CE0001200210E026E760EE82EFED7022EFCD7E1
:100CF00000D012003132334134353642373839436F
:100D000046304544620E026E660EE82EFED7022E75
:100D1000FCD71200210EE82EFED700F01200D08E74
:0C0D2000F28EF28C12009590838012007D
:020000040020DA
:08000000FFFFFFFFFFFFFFFF00
:020000040030CA
:0E000000000C191EFF8080FF0FC00FE00F40A4
:00000001FF
