:020000040000FA
:0400000007EF00F016
:0A0008005C826CED08F055EF08F083
:1008000000466563686164757261003A0000F6EC49
:1008100008F0B6EC08F0FAEC08F0A6EC08F0C3EC2F
:1008200008F080EC08F004500510D8B42FD0000E6A
:10083000496E000E486ED8904834D96E4934DA6E4D
:100840002A0ED926000EDA22000EDE6E000EDD6EB4
:10085000010E48241E6E000E49201F6ED8904834A9
:10086000D96E4934DA6E320ED926000EDA221EC055
:10087000DEFF1FC0DDFF484A492A49BEDCD7495088
:100880005DE1040E485CD8B059D0D5D7000E416E5A
:10089000010E406E40C002F041C003F0EAEC08F0E7
:1008A0001E6E1F6A206A1EC009F01FC00AF020C019
:1008B0000BF0E6EC05F0D8904034D96E4134DA6E96
:1008C0002A0ED926000EDA2209C0DEFF0AC0DDFF9B
:1008D000404A412A41BEDED7415004E1050E405C4A
:1008E000D8A0D8D7000E436E050E426E42C002F06B
:1008F00043C003F0EAEC08F01E6E1F6A206A1EC0B7
:1009000009F01FC00AF020C00BF0E6EC05F0D8900B
:100910004234D96E4334DA6E320ED926000EDA2212
:1009200009C0DEFF0AC0DDFF424A432A43BEDED7CC
:10093000435004E1090E425CD8A0D8D7000E3F6EA8
:10094000000E3E6E31EC05F002C03AF003C03BF001
:100950003AC003F03BC004F0ECEC06F0D8903E3413
:10096000D96E3F34DA6E220ED926000EDA223AC052
:10097000DEFF3BC0DDFF3E4A3F2A3FBEE3D73F508C
:1009800004E1040E3E5CD8A0DDD7000E3D6E010EE2
:100990003C6E000E456E000E446ED8904434D96E05
:1009A0004534DA6E2A0ED926000EDA22D890443465
:1009B000E16E4534E26E220EE126000EE222DE50A8
:1009C000E61804E1DE50E618D8B404D0000E3D6EFF
:1009D000020E3C6E444A452A45BEDFD7455004E12D
:1009E000040E445CD8A0D9D7000E476E000E466EA8
:1009F000D8904634D96E4734DA6E320ED926000EBE
:100A0000DA22D8904634E16E4734E26E220EE126B7
:100A1000000EE222DE50E61804E1DE50E618D8B4FB
:100A200004D0000E3D6E000E3C6E464A472A47BE7B
:100A3000DFD7475004E1040E465CD8A0D9D73C0468
:100A40003D10D8A47BD7828C030E1F6E8A0E1E6EBB
:100A5000560EE82EFED71E2EFCD71F2EFAD7829CEC
:100A60006DD781B62AD081A824D081AA19D081ACB3
:100A70000ED081AE03D00868096804D0000E096E5C
:100A80000C0E086E08C006F009C007F004D0000E76
:100A9000076E080E066E06C004F007C005F004D00D
:100AA000000E056E040E046E04C01CF005C01DF09F
:100AB00088D0000E1D6E000E83D081B42AD081A88C
:100AC00024D081AA19D081AC0ED081AE03D00E689B
:100AD0000F6804D0000E0F6E0D0E0E6E0EC00CF0DF
:100AE0000FC00DF004D0000E0D6E090E0C6E0CC080
:100AF0000AF00DC00BF004D0000E0B6E050E0A6E4E
:100B00000AC01CF00BC01DF05CD0000E1D6E010E63
:100B100057D081B22AD081A824D081AA19D081AC23
:100B20000ED081AE03D01468156804D0000E156E87
:100B30000E0E146E14C012F015C013F004D0000E87
:100B4000136E0A0E126E12C010F013C011F004D012
:100B5000000E116E060E106E10C01CF011C01DF0BC
:100B600030D0000E1D6E020E2BD081B02AD081A88D
:100B700024D081AA19D081AC0ED081AE03D01A68DE
:100B80001B6804D0000E1B6E0F0E1A6E1AC018F0F0
:100B90001BC019F004D0000E196E0B0E186E18C091
:100BA00016F019C017F004D0000E176E070E166E5F
:100BB00016C01CF017C01DF004D0000E1D6E030EF1
:100BC0001C6E1CC002F01DC003F01200000E186E57
:100BD000000E176E000E116E000E106E06D0010E84
:100BE0000926000E0A22000E0B22010E166E09C005
:100BF000F6FF0AC0F7FF0BC0F8FF0800F550200A07
:100C0000D8B41AD0F70E0C6EFF0E0D6E09C0F6FFA9
:100C10000AC0F7FF0BC0F8FF0800F5500E6E0F6A10
:100C20000C500E260D500F220F5004E1050E0E5CE5
:100C3000D8A002D0000E166E16C012F0136A125021
:100C40001310D8B40CD0CBD7000E116E010E106E5D
:100C5000010E0926000E0A22000E0B2232D009C016
:100C6000F6FF0AC0F7FF0BC0F8FF0800F5500C6E46
:100C70000D6A0D50000AD8A424D00C502B0AD8B409
:100C8000E7D7060AD8B4E0D71CD017C002F018C0C6
:100C900003F0000E056E0A0E046E93EC08F009C016
:100CA000F6FF0AC0F7FF0BC0F8FF0800F550025E20
:100CB000000E035A300E0224176E000E0320186E29
:100CC000C7D7D00E0C6EFF0E0D6E09C0F6FF0AC01E
:100CD000F7FF0BC0F8FF0800F5500E6E0F6A0C50BE
:100CE0000E260D500F220F5006E10A0E0E5CD8B0F2
:100CF00002D0010E01D0000E146E156A14501510AA
:100D0000D8A4C3D710501110D8A40DD017C00CF020
:100D100018C00DF00C1E0D1E0C4A0D2A0CC009F057
:100D20000DC00AF0120017C009F018C00AF0120036
:100D3000036E0F0E83160F0E95169694969096924C
:100D40008D948D908D92E2EC08F0300E71EC07F0EE
:100D5000D9EC08F0D9EC08F0300E71EC07F0D9ECC2
:100D600008F0D9EC08F0320E71EC07F0ECEC07F06B
:100D70000009D8A4FBD7ECEC07F00009D8A4FBD7F6
:100D8000035071EC07F0ECEC07F00009D8A4FBD796
:100D9000080E71EC07F0ECEC07F00009D8A4FBD7C3
:100DA0000F0E71EC07F0ECEC07F00009D8A4FBD7AC
:100DB000010E71EC07F0ECEC07F00009D8A4FBD7AA
:100DC000040E71EC07F0ECEC07F00009D8A4FBD797
:100DD000800E32EC07F0120020EE4AF010EE06F022
:100DE0000F0EDBCFE3FFE806FCE2032803E1042853
:100DF000D8B42BD0060E0324D96E000E0420DA6E70
:100E00002A0EDE18D8A404D05A06D8A05B061AD041
:100E1000060E0324D96E000E0420DA6E230EDE18AF
:100E2000D8A403D05A4A5B2A0DD05A5071EC07F06F
:100E3000060E0324D96E000E0420DA6EDF5052EC49
:100E400007F0F0D75A5071EC07F0ECEC07F000090E
:100E5000D8A41200340E056EF20EE82EFED7052E31
:100E6000FCD71200026E0F0E95160F0E831602505D
:100E70008009F00B83128D948D90F1EC08F08D8237
:100E8000F1EC08F08D920F0E83160238F00BF00B88
:100E90008312F1EC08F08D82F1EC08F08D92F00EE7
:100EA00095121200026E0F0E95160F0E8316025049
:100EB000F00B83128D808D94F1EC08F08D82F1ECB3
:100EC00008F08D920F0E83160238F00BF00B831290
:100ED000F1EC08F08D82F1EC08F08D92F00E951295
:100EE0001200026E0F0E95160F0E83160250F00BB5
:100EF00083128D948D90F1EC08F08D82F1EC08F066
:100F00008D920F0E83160238F00BF00B8312F1EC6A
:100F100008F08D82F1EC08F08D92F00E951212001F
:100F2000010E086E200E02180310D8B414D0F70E6C
:100F3000046EFF0E056E02C006F003C007F00450F9
:100F4000062605500722075004E1050E065CD8A0CE
:100F500002D0000E086E08C002F0036A120081B6CB
:100F600003D0818681940ED081B403D08184819294
:100F700009D081B203D08182819004D081B002D0A7
:100F80008180819683B003D0016A012A01D0016A71
:100F900083500118FE0B0118836E1200800E71EC55
:100FA00007F01A0E076EF80EE82EFED7072EFCD7B4
:100FB00000D005C003F006C004F023EC08F0C00E1A
:100FC00071EC07F00B0E036E080E046E09EC08F0CE
:100FD000C10E71EC07F012008D848D90F1EC08F0D9
:100FE0008D82F1EC08F083AE0AD08D92F1EC08F01E
:100FF0008D82F1EC08F08D928D94010E12008D928D
:10100000F1EC08F08D82F1EC08F08D928D94000ED9
:1010100012000FD0ECEC07F00009D8A4FBD703C0F6
:10102000F6FF04C0F7FF0800F55052EC07F0034A42
:10103000042A03C0F6FF04C0F7FF0800F5500009BA
:10104000D8B41200E7D70FD0ECEC07F00009D8A411
:10105000FBD703C0F6FF04C0F7FF0800F55052ECC1
:1010600007F0034A042A03C0F6FF04C0F7FF080094
:10107000F5500009D8B41200E7D7D00E046EFF0E69
:10108000056E02C006F003C007F0045006260550A6
:101090000722075006E10A0E065CD8B002D0010E06
:1010A00001D0000E026E036A1200A00EF66E110E41
:1010B000F76E000EF86E00EE4AF010EE12F0090026
:1010C000F5CFEEFFE550E150FAE15C905C92000E46
:1010D000F86E000107EF04F00600F0A002D0F090D7
:1010E0000DD0F0A202D0F09209D0F2A407D0AFEC5C
:1010F00007F0000ED76E640ED66EF2945C9211006B
:10110000000E036E000E026EEAEC08F0530AD8A43B
:1011100005D0000E056E000E046E1200000E056E66
:10112000010E046E120002500402F3CF06F0F4CF59
:1011300007F002500502F350072603500402F35053
:10114000072606C002F007C003F01200F19E0F0E42
:10115000C16E93909392939493969388938A938C71
:10116000938E81808182818481961200D58ED58C68
:10117000D59AD586D584D592D590F28A000ED76EB1
:10118000640ED66E1200280E98EC06F0010E71EC7B
:1011900007F0010E056E080E066ECEEC07F0120089
:1011A0003132334134353642373839432A302344DB
:1011B000C100210E026E760EE82EFED7022EFCD75D
:1011C00000D01200620E026E660EE82EFED7022ECE
:1011D000FCD7120002C0A9FFA69EA69CA680A8501C
:1011E0001200210EE82EFED700F01200D08EF28EF3
:0A11F000F28C12009590838012002B
:020000040020DA
:08000000FFFFFFFFFFFFFFFF00
:020000040030CA
:0E000000000C191EFF8080FF0FC00FE00F40A4
:00000001FF
