:020000040000FA
:0400000007EF00F016
:0A000800328256ED06F03DEF06F0DF
:1008000000466563686164757261003A000081B6F4
:100810002AD081A824D081AA19D081AC0ED081AE73
:1008200003D00868096804D0000E096E0C0E086E2B
:1008300008C006F009C007F004D0000E076E080ECD
:10084000066E06C004F007C005F004D0000E056E69
:10085000040E046E04C01CF005C01DF088D0000E0C
:100860001D6E000E83D081B42AD081A824D081AA25
:1008700019D081AC0ED081AE03D00E680F6804D0C1
:10088000000E0F6E0D0E0E6E0EC00CF00FC00DF0B0
:1008900004D0000E0D6E090E0C6E0CC00AF00DC0D7
:1008A0000BF004D0000E0B6E050E0A6E0AC01CF091
:1008B0000BC01DF05CD0000E1D6E010E57D081B232
:1008C0002AD081A824D081AA19D081AC0ED081AEC3
:1008D00003D01468156804D0000E156E0E0E146E49
:1008E00014C012F015C013F004D0000E136E0A0EDF
:1008F000126E12C010F013C011F004D0000E116E71
:10090000060E106E10C01CF011C01DF030D0000E8D
:100910001D6E020E2BD081B02AD081A824D081AACE
:1009200019D081AC0ED081AE03D01A681B6804D0F8
:10093000000E1B6E0F0E1A6E1AC018F01BC019F0B5
:1009400004D0000E196E0B0E186E18C016F019C0E8
:1009500017F004D0000E176E070E166E16C01CF0AE
:1009600017C01DF004D0000E1D6E030E1C6E1CC0BF
:1009700002F01DC003F01200036E0F0E83160F0E5F
:1009800095169694969096928D948D908D92A7EC54
:1009900006F0300EC8EC05F09EEC06F09EEC06F07A
:1009A000300EC8EC05F09EEC06F09EEC06F0320E20
:1009B000C8EC05F006EC06F00009D8A4FBD706EC5D
:1009C00006F00009D8A4FBD70350C8EC05F006ECEC
:1009D00006F00009D8A4FBD7080EC8EC05F006EC19
:1009E00006F00009D8A4FBD70F0EC8EC05F006EC02
:1009F00006F00009D8A4FBD7010EC8EC05F006EC00
:100A000006F00009D8A4FBD7040EC8EC05F006ECEC
:100A100006F00009D8A4FBD7800E89EC05F012007F
:100A200020EE20F010EE06F00F0EDBCFE3FFE8061D
:100A3000FCE2032803E10428D8B432D0060E0324D4
:100A4000D96E000E0420DA6E2A0EDE18D8A407D064
:100A50003006D8A031063050C8EC05F01ED0060E86
:100A60000324D96E000E0420DA6E230EDE18D8A4FB
:100A700006D0304A312A3050C8EC05F00ED0305044
:100A8000C8EC05F0060E0324D96E000E0420DA6EC1
:100A9000DF50A9EC05F0304A312A3050C8EC05F09F
:100AA00006EC06F00009D8A41200340E056EF20E12
:100AB000E82EFED7052EFCD71200B4EC06F088EC29
:100AC00006F0B8EC06F06AEC06F07AEC06F0800E60
:100AD000C8EC05F0010E036E080E046E23EC06F060
:100AE000C00EC8EC05F00B0E036E080E046E23EC6E
:100AF00006F0C10EC8EC05F007EC04F002C01EF0D1
:100B000003C01FF01EC003F01FC004F010EC05F07E
:100B1000F3D7026E0F0E95160F0E83160250800942
:100B2000F00B83128D948D90AFEC06F08D82AFECBC
:100B300006F08D920F0E83160238F00BF00B831225
:100B4000AFEC06F08D82AFEC06F08D92F00E9512B0
:100B50001200026E0F0E95160F0E83160250F00B48
:100B600083128D808D94AFEC06F08D82AFEC06F091
:100B70008D920F0E83160238F00BF00B8312AFEC40
:100B800006F08D82AFEC06F08D92F00E95121200F9
:100B9000026E0F0E95160F0E83160250F00B831285
:100BA0008D948D90AFEC06F08D82AFEC06F08D92B7
:100BB0000F0E83160238F00BF00B8312AFEC06F029
:100BC0008D82AFEC06F08D92F00E9512120081B678
:100BD00003D0818681940ED081B403D08184819228
:100BE00009D081B203D08182819004D081B002D03B
:100BF0008180819683B003D0016A012A01D0016A05
:100C000083500118FE0B0118836E12008D848D90A5
:100C1000AFEC06F08D82AFEC06F083AE0AD08D9279
:100C2000AFEC06F08D82AFEC06F08D928D94010E44
:100C300012008D92AFEC06F08D82AFEC06F08D9233
:100C40008D94000E12000FD006EC06F00009D8A417
:100C5000FBD703C0F6FF04C0F7FF0800F550A9EC6E
:100C600005F0034A042A03C0F6FF04C0F7FF08009A
:100C7000F5500009D8B41200E7D72A0EF66E0D0E13
:100C8000F76E000EF86E00EE20F010EE12F0090084
:100C9000F5CFEEFFE550E150FAE132903292000ECE
:100CA000F86E080EF76E00015DEF05F00600F0A08B
:100CB00002D0F0900DD0F0A202D0F09209D0F2A4B0
:100CC00007D0E7EC05F0000ED76E640ED66EF294F6
:100CD00032921100F19E0F0EC16E939093929394F5
:100CE00093969388938A938C938E8180818281845A
:100CF00081961200280EBCEC04F0010EC8EC05F041
:100D0000340E046EF20EE82EFED7042EFCD712002D
:100D1000D58ED58CD59AD586D584D592D590F28AA4
:100D2000000ED76E640ED66E120031323341343568
:100D30003642373839432A302344C100210E026E2F
:100D4000760EE82EFED7022EFCD700D01200620EDF
:100D5000026E660EE82EFED7022EFCD71200210E80
:100D6000E82EFED700F01200D08EF28EF28C120028
:060D700095908380120043
:020000040020DA
:08000000FFFFFFFFFFFFFFFF00
:020000040030CA
:0E000000000C191EFF8080FF0FC00FE00F40A4
:00000001FF
